<!DOCTYPE html>
<!--[if IE 8]><html class="no-js lt-ie9" lang="en" > <![endif]-->
<!--[if gt IE 8]><!--> <html class="no-js" lang="en" > <!--<![endif]-->
<head>
  <meta charset="utf-8">
  <meta http-equiv="X-UA-Compatible" content="IE=edge">
  <meta name="viewport" content="width=device-width, initial-scale=1.0">
  <meta name="description" content="A plugin bridging Ethereum Tokens to Unity.">
  
  
  <link rel="shortcut icon" href="img/favicon.ico">
  <title>_dLabs SDK</title>
  <link rel="stylesheet" href="https://fonts.googleapis.com/css?family=Lato:400,700|Roboto+Slab:400,700|Inconsolata:400,700" />

  <link rel="stylesheet" href="css/theme.css" />
  <link rel="stylesheet" href="css/theme_extra.css" />
  <link rel="stylesheet" href="https://cdnjs.cloudflare.com/ajax/libs/highlight.js/9.12.0/styles/github.min.css" />
  
  <script>
    // Current page data
    var mkdocs_page_name = "_dLabs SDK";
    var mkdocs_page_input_path = "index.md";
    var mkdocs_page_url = null;
  </script>
  
  <script src="js/jquery-2.1.1.min.js" defer></script>
  <script src="js/modernizr-2.8.3.min.js" defer></script>
  <script src="https://cdnjs.cloudflare.com/ajax/libs/highlight.js/9.12.0/highlight.min.js"></script>
  <script>hljs.initHighlightingOnLoad();</script> 
  
</head>

<body class="wy-body-for-nav" role="document">

  <div class="wy-grid-for-nav">

    
    <nav data-toggle="wy-nav-shift" class="wy-nav-side stickynav">
    <div class="wy-side-scroll">
      <div class="wy-side-nav-search">
        <a href="." class="icon icon-home"> _dLabs SDK</a>
        <div role="search">
  <form id ="rtd-search-form" class="wy-form" action="./search.html" method="get">
    <input type="text" name="q" placeholder="Search docs" title="Type search term here" />
  </form>
</div>
      </div>

      <div class="wy-menu wy-menu-vertical" data-spy="affix" role="navigation" aria-label="main navigation">
                <ul class="current">
                    <li class="toctree-l1 current"><a class="reference internal current" href=".">_dLabs SDK</a>
    <ul class="current">
    <li class="toctree-l2"><a class="reference internal" href="#introduction">Introduction</a>
    </li>
    <li class="toctree-l2"><a class="reference internal" href="#login">Login</a>
        <ul>
    <li class="toctree-l3"><a class="reference internal" href="#ios-android-standalone-login">iOS, Android, Standalone Login</a>
    </li>
    <li class="toctree-l3"><a class="reference internal" href="#webgl-login">WebGL Login</a>
    </li>
    <li class="toctree-l3"><a class="reference internal" href="#_config">_Config</a>
    </li>
        </ul>
    </li>
    <li class="toctree-l2"><a class="reference internal" href="#webgl-build">WebGL Build</a>
        <ul>
    <li class="toctree-l3"><a class="reference internal" href="#call-through-webgl">Call through WebGL</a>
    </li>
    <li class="toctree-l3"><a class="reference internal" href="#send-through-webgl">Send through WebGL</a>
    </li>
        </ul>
    </li>
    <li class="toctree-l2"><a class="reference internal" href="#ethereum">Ethereum</a>
        <ul>
    <li class="toctree-l3"><a class="reference internal" href="#balance-of">Balance Of</a>
    </li>
    <li class="toctree-l3"><a class="reference internal" href="#create-transaction">Create Transaction</a>
    </li>
    <li class="toctree-l3"><a class="reference internal" href="#broadcast-transaction">Broadcast Transaction</a>
    </li>
    <li class="toctree-l3"><a class="reference internal" href="#verify">Verify</a>
    </li>
        </ul>
    </li>
    <li class="toctree-l2"><a class="reference internal" href="#erc1155">ERC1155</a>
        <ul>
    <li class="toctree-l3"><a class="reference internal" href="#balance-of_1">Balance Of</a>
    </li>
    <li class="toctree-l3"><a class="reference internal" href="#balance-of-batch">Balance Of Batch</a>
    </li>
    <li class="toctree-l3"><a class="reference internal" href="#uri">URI</a>
    </li>
    <li class="toctree-l3"><a class="reference internal" href="#is-approved-for-all">Is Approved For All</a>
    </li>
        </ul>
    </li>
    <li class="toctree-l2"><a class="reference internal" href="#erc721">ERC721</a>
        <ul>
    <li class="toctree-l3"><a class="reference internal" href="#balance-of_2">Balance Of</a>
    </li>
    <li class="toctree-l3"><a class="reference internal" href="#owner-of">Owner Of</a>
    </li>
    <li class="toctree-l3"><a class="reference internal" href="#uri_1">URI</a>
    </li>
        </ul>
    </li>
    <li class="toctree-l2"><a class="reference internal" href="#erc20">ERC20</a>
        <ul>
    <li class="toctree-l3"><a class="reference internal" href="#balance-of_3">Balance Of</a>
    </li>
    <li class="toctree-l3"><a class="reference internal" href="#name">Name</a>
    </li>
    <li class="toctree-l3"><a class="reference internal" href="#symbol">Symbol</a>
    </li>
    <li class="toctree-l3"><a class="reference internal" href="#decimals">Decimals</a>
    </li>
    <li class="toctree-l3"><a class="reference internal" href="#total-supply">Total Supply</a>
    </li>
        </ul>
    </li>
    <li class="toctree-l2"><a class="reference internal" href="#polygon">Polygon</a>
        <ul>
    <li class="toctree-l3"><a class="reference internal" href="#balance-of_4">Balance Of</a>
    </li>
    <li class="toctree-l3"><a class="reference internal" href="#verify_1">Verify</a>
    </li>
        </ul>
    </li>
    <li class="toctree-l2"><a class="reference internal" href="#polygon1155">Polygon1155</a>
        <ul>
    <li class="toctree-l3"><a class="reference internal" href="#balance-of_5">Balance Of</a>
    </li>
    <li class="toctree-l3"><a class="reference internal" href="#balance-of-batch_1">Balance Of Batch</a>
    </li>
    <li class="toctree-l3"><a class="reference internal" href="#uri_2">URI</a>
    </li>
    <li class="toctree-l3"><a class="reference internal" href="#is-approved-for-all_1">Is Approved For All</a>
    </li>
        </ul>
    </li>
    <li class="toctree-l2"><a class="reference internal" href="#polygon721">Polygon721</a>
        <ul>
    <li class="toctree-l3"><a class="reference internal" href="#balance-of_6">Balance Of</a>
    </li>
    <li class="toctree-l3"><a class="reference internal" href="#owner-of_1">Owner Of</a>
    </li>
    <li class="toctree-l3"><a class="reference internal" href="#uri_3">URI</a>
    </li>
        </ul>
    </li>
    <li class="toctree-l2"><a class="reference internal" href="#binance-smart-chain">Binance Smart Chain</a>
        <ul>
    <li class="toctree-l3"><a class="reference internal" href="#balance-of_7">Balance Of</a>
    </li>
    <li class="toctree-l3"><a class="reference internal" href="#verify_2">Verify</a>
    </li>
        </ul>
    </li>
    <li class="toctree-l2"><a class="reference internal" href="#bep1155">BEP1155</a>
        <ul>
    <li class="toctree-l3"><a class="reference internal" href="#balance-of_8">Balance Of</a>
    </li>
    <li class="toctree-l3"><a class="reference internal" href="#balance-of-batch_2">Balance Of Batch</a>
    </li>
    <li class="toctree-l3"><a class="reference internal" href="#uri_4">URI</a>
    </li>
    <li class="toctree-l3"><a class="reference internal" href="#is-approved-for-all_2">Is Approved For All</a>
    </li>
        </ul>
    </li>
    <li class="toctree-l2"><a class="reference internal" href="#bep721">BEP721</a>
        <ul>
    <li class="toctree-l3"><a class="reference internal" href="#balance-of_9">Balance Of</a>
    </li>
    <li class="toctree-l3"><a class="reference internal" href="#owner-of_2">Owner Of</a>
    </li>
    <li class="toctree-l3"><a class="reference internal" href="#uri_5">URI</a>
    </li>
        </ul>
    </li>
    <li class="toctree-l2"><a class="reference internal" href="#bep20">BEP20</a>
        <ul>
    <li class="toctree-l3"><a class="reference internal" href="#balance-of_10">Balance Of</a>
    </li>
    <li class="toctree-l3"><a class="reference internal" href="#name_1">Name</a>
    </li>
    <li class="toctree-l3"><a class="reference internal" href="#symbol_1">Symbol</a>
    </li>
    <li class="toctree-l3"><a class="reference internal" href="#decimals_1">Decimals</a>
    </li>
    <li class="toctree-l3"><a class="reference internal" href="#total-supply_1">Total Supply</a>
    </li>
        </ul>
    </li>
    <li class="toctree-l2"><a class="reference internal" href="#xdai">xDai</a>
        <ul>
    <li class="toctree-l3"><a class="reference internal" href="#balance-of_11">Balance Of</a>
    </li>
    <li class="toctree-l3"><a class="reference internal" href="#verify_3">Verify</a>
    </li>
        </ul>
    </li>
    <li class="toctree-l2"><a class="reference internal" href="#xdai1155">xDai1155</a>
        <ul>
    <li class="toctree-l3"><a class="reference internal" href="#balance-of_12">Balance Of</a>
    </li>
    <li class="toctree-l3"><a class="reference internal" href="#balance-of-batch_3">Balance Of Batch</a>
    </li>
    <li class="toctree-l3"><a class="reference internal" href="#uri_6">URI</a>
    </li>
    <li class="toctree-l3"><a class="reference internal" href="#is-approved-for-all_3">Is Approved For All</a>
    </li>
        </ul>
    </li>
    <li class="toctree-l2"><a class="reference internal" href="#xdai721">xDai721</a>
        <ul>
    <li class="toctree-l3"><a class="reference internal" href="#balance-of_13">Balance Of</a>
    </li>
    <li class="toctree-l3"><a class="reference internal" href="#owner-of_3">Owner Of</a>
    </li>
    <li class="toctree-l3"><a class="reference internal" href="#uri_7">URI</a>
    </li>
        </ul>
    </li>
    <li class="toctree-l2"><a class="reference internal" href="#xdai20">xDai20</a>
        <ul>
    <li class="toctree-l3"><a class="reference internal" href="#balance-of_14">Balance Of</a>
    </li>
    <li class="toctree-l3"><a class="reference internal" href="#name_2">Name</a>
    </li>
    <li class="toctree-l3"><a class="reference internal" href="#symbol_2">Symbol</a>
    </li>
    <li class="toctree-l3"><a class="reference internal" href="#decimals_2">Decimals</a>
    </li>
    <li class="toctree-l3"><a class="reference internal" href="#total-supply_2">Total Supply</a>
    </li>
        </ul>
    </li>
    </ul>
                    </li>
                </ul>
      </div>
    </div>
    </nav>

    <section data-toggle="wy-nav-shift" class="wy-nav-content-wrap">

      
      <nav class="wy-nav-top" role="navigation" aria-label="top navigation">
        <i data-toggle="wy-nav-top" class="fa fa-bars"></i>
        <a href=".">_dLabs SDK</a>
      </nav>

      
      <div class="wy-nav-content">
        <div class="rst-content">
          <div role="navigation" aria-label="breadcrumbs navigation">
  <ul class="wy-breadcrumbs">
    <li><a href=".">Docs</a> &raquo;</li>
    
      
    
    <li>_dLabs SDK</li>
    <li class="wy-breadcrumbs-aside">
      
    </li>
  </ul>
  
  <hr/>
</div>
          <div role="main">
            <div class="section">
              
                <h1 id="_dlabs-documentation">_dLabs Documentation</h1>
<p>Bridge games to the blockchain.</p>
<h2 id="introduction">Introduction</h2>
<p><a href="https://youtu.be/ry97OIwP8Zk"><img alt="Watch the video" src="https://user-images.githubusercontent.com/19412160/103559601-66aa0480-4e84-11eb-803a-6f854e93640a.png" /></a></p>
<h2 id="login">Login</h2>
<p>There are two Login Scenes. One for webgl and the other for stand alone (iOS, Android, Standalone)</p>
<h3 id="ios-android-standalone-login">iOS, Android, Standalone Login</h3>
<p><a href="https://www.youtube.com/watch?v=PSydAY9ps-I"><img alt="" src="https://user-images.githubusercontent.com/19412160/109343259-0d829f80-783b-11eb-9324-9962cd2b0c8c.png" /></a></p>
<h3 id="webgl-login">WebGL Login</h3>
<p><a href="https://www.youtube.com/watch?v=4KpftfYcaEY"><img alt="" src="https://user-images.githubusercontent.com/19412160/112086705-17aa6c00-8b63-11eb-80b5-ef75801d4e21.png" /></a></p>
<h3 id="_config">_Config</h3>
<p>After Login Scene <code>_Config.cs</code> will store user info. This can be accessed in any scene.</p>
<pre><code class="language-c#">string account = _Config.Account;
print(account);
</code></pre>
<h2 id="webgl-build">WebGL Build</h2>
<p><a href="https://www.youtube.com/watch?v=WkWYPuFHM5k"><img alt="" src="https://user-images.githubusercontent.com/19412160/118180075-1fb8b680-b404-11eb-99cd-486eae19fe0d.png" /></a></p>
<h3 id="call-through-webgl">Call through WebGL</h3>
<p>Call will execute a smart contract method without altering the smart contract state.</p>
<pre><code class="language-c#">// smart contract method to call
string method = &quot;x&quot;;
// abi in json format
string abi = &quot;[ { \&quot;inputs\&quot;: [], \&quot;name\&quot;: \&quot;increment\&quot;, \&quot;outputs\&quot;: [], \&quot;stateMutability\&quot;: \&quot;nonpayable\&quot;, \&quot;type\&quot;: \&quot;function\&quot; }, { \&quot;inputs\&quot;: [], \&quot;name\&quot;: \&quot;x\&quot;, \&quot;outputs\&quot;: [ { \&quot;internalType\&quot;: \&quot;uint256\&quot;, \&quot;name\&quot;: \&quot;\&quot;, \&quot;type\&quot;: \&quot;uint256\&quot; } ], \&quot;stateMutability\&quot;: \&quot;view\&quot;, \&quot;type\&quot;: \&quot;function\&quot; } ]&quot;;
// address of contract
string contract = &quot;0xB6B8bB1e16A6F73f7078108538979336B9B7341C&quot;;
// array of arguments for contract
string args = &quot;[]&quot;;

// connects to user's browser wallet to call a transaction
string response = await Web3GL.Call(method, abi, contract, args);
</code></pre>
<h3 id="send-through-webgl">Send through WebGL</h3>
<p>Send will execute a smart contract method, altering the smart contract state.</p>
<pre><code class="language-c#">// smart contract method to call
string method = &quot;increment&quot;;
// abi in json format
string abi = &quot;[ { \&quot;inputs\&quot;: [], \&quot;name\&quot;: \&quot;increment\&quot;, \&quot;outputs\&quot;: [], \&quot;stateMutability\&quot;: \&quot;nonpayable\&quot;, \&quot;type\&quot;: \&quot;function\&quot; }, { \&quot;inputs\&quot;: [], \&quot;name\&quot;: \&quot;x\&quot;, \&quot;outputs\&quot;: [ { \&quot;internalType\&quot;: \&quot;uint256\&quot;, \&quot;name\&quot;: \&quot;\&quot;, \&quot;type\&quot;: \&quot;uint256\&quot; } ], \&quot;stateMutability\&quot;: \&quot;view\&quot;, \&quot;type\&quot;: \&quot;function\&quot; } ]&quot;;
// address of contract
string contract = &quot;0xB6B8bB1e16A6F73f7078108538979336B9B7341C&quot;;
// array of arguments for contract
string args = &quot;[]&quot;;
// value in wei
string value = &quot;0&quot;;

// connects to user's browser wallet (metamask) to send a transaction
Web3GL.Send(method, abi, contract, args, value);
</code></pre>
<h2 id="ethereum">Ethereum</h2>
<h3 id="balance-of">Balance Of</h3>
<pre><code class="language-c#">string network = &quot;mainnet&quot;; // mainnet ropsten kovan rinkeby goerli
string account = &quot;0x99C85bb64564D9eF9A99621301f22C9993Cb89E3&quot;;

BigInteger wei = await Ethereum.BalanceOf(network, account);
print(&quot;wei: &quot; + wei);
</code></pre>
<h3 id="create-transaction">Create Transaction</h3>
<p>Create an unsigned transaction. User can sign offline.</p>
<pre><code class="language-c#">string network = &quot;rinkeby&quot;; // mainnet ropsten kovan rinkeby goerli
string from = &quot;0x35706484aB20Cbf22F5c7a375D5764DA8166aE1c&quot;;
string to = &quot;0x7E3bE66431ba73956213C40C0828355D1A7894D3&quot;;
string eth = &quot;0.00111&quot;;

Transaction transaction = await Ethereum.CreateTransaction(network, from, to, eth);

print(&quot;network: &quot; + transaction.network);
print(&quot;to: &quot; + transaction.to);
print(&quot;wei: &quot; + transaction.wei);
print(&quot;nonce: &quot; + transaction.nonce);
print(&quot;gasLimit: &quot; + transaction.gasLimit);
print(&quot;gasPrice: &quot; + transaction.gasPrice);
print(&quot;hex: &quot; + transaction.hex);
</code></pre>
<h3 id="broadcast-transaction">Broadcast Transaction</h3>
<p>Broadcast a signed transaction.</p>
<pre><code class="language-c#">string network = &quot;rinkeby&quot;; // mainnet ropsten kovan rinkeby goerli
string signedTransaction = &quot;0xf86b04843b9aca0083989680947e3be66431ba73956213c40c0828355d1a7894d38703f18a03b36000802ca0043ab6289f2a44dd911bfb3658cfac12710354a3e0cef35544c9348b15f9f6f7a018d36b8d5b61dc00a54293528d0edd8a4a7c9f064817825c7e8cb8167b240860&quot;;

string transactionHash = await Ethereum.Broadcast(network, signedTransaction);
print (transactionHash);
</code></pre>
<h3 id="verify">Verify</h3>
<p>Verify a signed message.</p>
<pre><code class="language-c#">string network = &quot;mainnet&quot;; // mainnet ropsten kovan rinkeby goerli
string message = &quot;YOUR_MESSAGE&quot;;
string signature = &quot;0x94bdbebbd0180195b89721a55c3a436a194358c9b3c4eafd22484085563ff55e49a4552904266a5b56662b280757f6aad3b2ab91509daceef4e5b3016afd34781b&quot;;

string account = await Ethereum.Verify(network, message, signature);
print (account); // 0xC52C1FB0B9681e1c80e5AdA8eEeD992C0C2706eE
</code></pre>
<h2 id="erc1155">ERC1155</h2>
<p>ERC-1155 contracts have two additonal fields.</p>
<ul>
<li>
<p>Contract address: The address that stores the balances of the token.</p>
</li>
<li>
<p>Token Id: The specific token inside of the contract address.</p>
</li>
</ul>
<p>For example. The contract address <code>0x5e30b1d6f920364c847512e2528efdadf72a97a9</code> can store all digital chess pieces. A pawn can be token id <code>17</code>.</p>
<h3 id="balance-of_1">Balance Of</h3>
<pre><code class="language-c#">string network = &quot;rinkeby&quot;; // mainnet ropsten kovan rinkeby goerli
string contract = &quot;0x2ebecabbbe8a8c629b99ab23ed154d74cd5d4342&quot;;
string account = &quot;0xaca9b6d9b1636d99156bb12825c75de1e5a58870&quot;;
string tokenId = &quot;22&quot;;

BigInteger balance = await ERC1155.BalanceOf(network, contract, account, tokenId);

print (balance)
</code></pre>
<h3 id="balance-of-batch">Balance Of Batch</h3>
<p>Balance of batch will get the balance of a list of accounts and token ids. For example:</p>
<p>Get the balance of account <code>0xaCA9B6D9B1636D99156bB12825c75De1E5a58870</code> with token id <code>17</code> and</p>
<p>balance of account <code>0xaCA9B6D9B1636D99156bB12825c75De1E5a58870</code> with token id <code>22</code></p>
<pre><code class="language-c#">string network = &quot;rinkeby&quot;; // mainnet ropsten kovan rinkeby goerli
string contract = &quot;0x2ebecabbbe8a8c629b99ab23ed154d74cd5d4342&quot;;
string[] accounts ={ &quot;0xaCA9B6D9B1636D99156bB12825c75De1E5a58870&quot;, &quot;0xaCA9B6D9B1636D99156bB12825c75De1E5a58870&quot; };
string[] tokenIds = { &quot;17&quot;, &quot;22&quot; };

List&lt;BigInteger&gt; batchBalances = await ERC1155.BalanceOfBatch(network, contract, accounts, tokenIds);

foreach (var balance in batchBalances)
{
  print (&quot;batchBalance:&quot; + balance);
}
</code></pre>
<h3 id="uri">URI</h3>
<p>Returns meta data about the token.</p>
<pre><code class="language-c#">string network = &quot;rinkeby&quot;; // mainnet ropsten kovan rinkeby goerli
string contract = &quot;0x2ebecabbbe8a8c629b99ab23ed154d74cd5d4342&quot;;
string tokenId = &quot;17&quot;;

string uri = await ERC1155.URI(network, contract, tokenId);

print (uri);
</code></pre>
<h3 id="is-approved-for-all">Is Approved For All</h3>
<p>Queries the approval status of an operator for a given owner</p>
<pre><code class="language-c#">string network = &quot;rinkeby&quot;; // mainnet ropsten kovan rinkeby goerli
string contract = &quot;0x2ebecabbbe8a8c629b99ab23ed154d74cd5d4342&quot;;
string account = &quot;0xaca9b6d9b1636d99156bb12825c75de1e5a58870&quot;;
string authorizedOperator = &quot;0x3482549fca7511267c9ef7089507c0f16ea1dcc1&quot;;

bool isApproved = await ERC1155.IsApprovedForAll(network, contract, account, authorizedOperator);

print (isApproved);
</code></pre>
<h2 id="erc721">ERC721</h2>
<h3 id="balance-of_2">Balance Of</h3>
<p>Counts all NFTs assigned to an owner</p>
<pre><code class="language-c#">string network = &quot;mainnet&quot;; // mainnet ropsten kovan rinkeby goerli
string contract = &quot;0x60f80121c31a0d46b5279700f9df786054aa5ee5&quot;;
string account = &quot;0x6b2be2106a7e883f282e2ea8e203f516ec5b77f7&quot;;

BigInteger balance = await ERC721.BalanceOf(network, contract, account);

print (balance);
</code></pre>
<h3 id="owner-of">Owner Of</h3>
<p>Find the owner of a NFT</p>
<pre><code class="language-c#">string network = &quot;mainnet&quot;; // mainnet ropsten kovan rinkeby goerli
string contract = &quot;0xf5b0a3efb8e8e4c201e2a935f110eaaf3ffecb8d&quot;;
string tokenId = &quot;721&quot;;

string account = await ERC721.OwnerOf(network, contract, tokenId);

print (account);
</code></pre>
<h3 id="uri_1">URI</h3>
<pre><code class="language-c#">string network = &quot;mainnet&quot;; // mainnet ropsten kovan rinkeby goerli
string contract = &quot;0xf5b0a3efb8e8e4c201e2a935f110eaaf3ffecb8d&quot;;
string tokenId = &quot;721&quot;;

string uri = await ERC721.TokenURI(network, contract, tokenId);

print (uri);
</code></pre>
<h2 id="erc20">ERC20</h2>
<h3 id="balance-of_3">Balance Of</h3>
<pre><code class="language-c#">string network = &quot;rinkeby&quot;; // mainnet ropsten kovan rinkeby goerli
string contract = &quot;0xc778417e063141139fce010982780140aa0cd5ab&quot;;
string account = &quot;0xaCA9B6D9B1636D99156bB12825c75De1E5a58870&quot;;

BigInteger balance = await ERC20.BalanceOf(network, contract, account);

print (balance);
</code></pre>
<h3 id="name">Name</h3>
<p>Returns the name of the token. E.g. "Wrapped Ether"</p>
<pre><code class="language-c#">string network = &quot;rinkeby&quot;; // mainnet ropsten kovan rinkeby goerli
string contract = &quot;0xc778417E063141139Fce010982780140Aa0cD5Ab&quot;;

string name = await ERC20.Name(network, contract);

print (name);
</code></pre>
<h3 id="symbol">Symbol</h3>
<p>Returns the symbol of the token. E.g. “WETH”.</p>
<pre><code class="language-c#">string network = &quot;rinkeby&quot;; // mainnet ropsten kovan rinkeby goerli
string contract = &quot;0xc778417E063141139Fce010982780140Aa0cD5Ab&quot;;

string symbol = await ERC20.Symbol(network, contract);

print (symbol);
</code></pre>
<h3 id="decimals">Decimals</h3>
<p>Returns the number of decimals the token uses - e.g. 8, means to divide the token amount by 100000000 to get its user representation.</p>
<pre><code class="language-c#">string network = &quot;rinkeby&quot;; // mainnet ropsten kovan rinkeby goerli
string contract = &quot;0xc778417E063141139Fce010982780140Aa0cD5Ab&quot;;

BigInteger decimals = await ERC20.Decimals(network, contract);

print (decimals);
</code></pre>
<h3 id="total-supply">Total Supply</h3>
<p>Returns the total token supply.</p>
<pre><code class="language-c#">string network = &quot;rinkeby&quot;; // mainnet ropsten kovan rinkeby goerli
string contract = &quot;0xc778417e063141139fce010982780140aa0cd5ab&quot;;

BigInteger totalSupply = await ERC20.TotalSupply(network, contract);

print (totalSupply);
</code></pre>
<h2 id="polygon">Polygon</h2>
<h3 id="balance-of_4">Balance Of</h3>
<pre><code class="language-c#">string network = &quot;mainnet&quot;; // mainnet testnet
string account = &quot;0x99C85bb64564D9eF9A99621301f22C9993Cb89E3&quot;;

BigInteger balance = await Polygon.BalanceOf(network, account);

print(balance);
</code></pre>
<h3 id="verify_1">Verify</h3>
<p>Verify a signed message.</p>
<pre><code class="language-c#">string network = &quot;mainnet&quot;; // mainnet testnet
string message = &quot;YOUR_MESSAGE&quot;;
string signature = &quot;0x94bdbebbd0180195b89721a55c3a436a194358c9b3c4eafd22484085563ff55e49a4552904266a5b56662b280757f6aad3b2ab91509daceef4e5b3016afd34781b&quot;;

string account = await Polygon.Verify(network, message, signature);

print (account);
</code></pre>
<h2 id="polygon1155">Polygon1155</h2>
<h3 id="balance-of_5">Balance Of</h3>
<pre><code class="language-c#">string network = &quot;mainnet&quot;; // mainnet testnet
string contract = &quot;0xfd1dBD4114550A867cA46049C346B6cD452ec919&quot;;
string account = &quot;0x451bb3B5B93EE605daFA2D572AC170E9990eb8E4&quot;;
string tokenId = &quot;141&quot;;

BigInteger balance = await Polygon1155.BalanceOf(network, contract, account, tokenId);

print (balance);
</code></pre>
<h3 id="balance-of-batch_1">Balance Of Batch</h3>
<pre><code class="language-c#">string network = &quot;mainnet&quot;; // mainnet testnet
string contract = &quot;0xfd1dBD4114550A867cA46049C346B6cD452ec919&quot;;
string[] accounts =
{
  &quot;0x451bb3B5B93EE605daFA2D572AC170E9990eb8E4&quot;,
  &quot;0x451bb3B5B93EE605daFA2D572AC170E9990eb8E4&quot;
};
string[] tokenIds = { &quot;141&quot;, &quot;142&quot; };

List&lt;BigInteger&gt; batchBalances = await Polygon1155.BalanceOfBatch(network, contract, accounts, tokenIds);

foreach (var balance in batchBalances)
{
  print (&quot;batchBalance:&quot; + balance);
}
</code></pre>
<h3 id="uri_2">URI</h3>
<p>Returns meta data about the token.</p>
<pre><code class="language-c#">string network = &quot;mainnet&quot;; // mainnet testnet
string contract = &quot;0xfd1dBD4114550A867cA46049C346B6cD452ec919&quot;;
string tokenId = &quot;141&quot;;

string uri = await Polygon1155.URI(network, contract, tokenId);

print (uri);
</code></pre>
<h3 id="is-approved-for-all_1">Is Approved For All</h3>
<p>Queries the approval status of an operator for a given owner</p>
<pre><code class="language-c#">string network = &quot;mainnet&quot;; // mainnet testnet
string contract = &quot;0xfd1dBD4114550A867cA46049C346B6cD452ec919&quot;;
string account = &quot;0x72b8Df71072E38E8548F9565A322B04b9C752932&quot;;
string authorizedOperator = &quot;0x35706484aB20Cbf22F5c7a375D5764DA8166aE1c&quot;;

bool isApproved = await Polygon1155.IsApprovedForAll(network, contract, account, authorizedOperator);

print (isApproved);
</code></pre>
<h2 id="polygon721">Polygon721</h2>
<h3 id="balance-of_6">Balance Of</h3>
<p>Counts all NFTs assigned to an owner</p>
<pre><code class="language-c#">string network = &quot;mainnet&quot;; // mainnet testnet
string contract = &quot;0xbCCaa7ACb552A2c7eb27C7eb77c2CC99580735b9&quot;;
string account = &quot;0x8861399ee37626fcc020c49e5184d9b839ed854a&quot;;

BigInteger balance = await Polygon721.BalanceOf(network, contract, account);

print (balance);
</code></pre>
<h3 id="owner-of_1">Owner Of</h3>
<p>Find the owner of a NFT</p>
<pre><code class="language-c#">string network = &quot;mainnet&quot;; // mainnet testnet
string contract = &quot;0xbCCaa7ACb552A2c7eb27C7eb77c2CC99580735b9&quot;;
string tokenId = &quot;965&quot;;

string account = await Polygon721.OwnerOf(network, contract, tokenId);

print (account);
</code></pre>
<h3 id="uri_3">URI</h3>
<pre><code class="language-c#">string network = &quot;mainnet&quot;; // mainnet testnet
string contract = &quot;0xbCCaa7ACb552A2c7eb27C7eb77c2CC99580735b9&quot;;
string tokenId = &quot;965&quot;;

string uri = await Polygon721.TokenURI(network, contract, tokenId);

print (uri);
</code></pre>
<h2 id="binance-smart-chain">Binance Smart Chain</h2>
<h3 id="balance-of_7">Balance Of</h3>
<pre><code class="language-c#">string network = &quot;testnet&quot;; // mainnet testnet
string account = &quot;0x451bb3B5B93EE605daFA2D572AC170E9990eb8E4&quot;;

BigInteger balance = await Binance.BalanceOf(network, account);

print(balance);
</code></pre>
<h3 id="verify_2">Verify</h3>
<pre><code class="language-c#">string network = &quot;mainnet&quot;; // mainnet testnet
string message = &quot;YOUR_MESSAGE&quot;;
string signature = &quot;0x94bdbebbd0180195b89721a55c3a436a194358c9b3c4eafd22484085563ff55e49a4552904266a5b56662b280757f6aad3b2ab91509daceef4e5b3016afd34781b&quot;;

string account = await Binance.Verify(network, message, signature);

print (account);
</code></pre>
<h2 id="bep1155">BEP1155</h2>
<p>Binance Smart Chain that extends ERC-1155</p>
<h3 id="balance-of_8">Balance Of</h3>
<pre><code class="language-c#">string network = &quot;mainnet&quot;; // mainnet testnet
string contract = &quot;0x3E31F70912c00AEa971A8b2045bd568D738C31Dc&quot;;
string account = &quot;0xe91e3b8b25f41b215645813a33e39edf42ba25cf&quot;;
string tokenId = &quot;770&quot;;

BigInteger balance = await BEP1155.BalanceOf(network, contract, account, tokenId);

print (balance);
</code></pre>
<h3 id="balance-of-batch_2">Balance Of Batch</h3>
<pre><code class="language-c#">string network = &quot;mainnet&quot;; // mainnet testnet
string contract = &quot;0x3E31F70912c00AEa971A8b2045bd568D738C31Dc&quot;;
string[] accounts =
{
  &quot;0xe91e3b8b25f41b215645813a33e39edf42ba25cf&quot;,
  &quot;0xe91e3b8b25f41b215645813a33e39edf42ba25cf&quot;
};
string[] tokenIds = { &quot;770&quot;, &quot;771&quot; };

List&lt;BigInteger&gt; batchBalances = await BEP1155.BalanceOfBatch(network, contract, accounts, tokenIds);

foreach (var balance in batchBalances)
{
  print (&quot;batchBalance:&quot; + balance);
}
</code></pre>
<h3 id="uri_4">URI</h3>
<p>Returns meta data about the token.</p>
<pre><code class="language-c#">string network = &quot;mainnet&quot;; // mainnet testnet
string contract = &quot;0x3E31F70912c00AEa971A8b2045bd568D738C31Dc&quot;;
string tokenId = &quot;770&quot;;

string uri = await BEP1155.URI(network, contract, tokenId);

print (uri);
</code></pre>
<h3 id="is-approved-for-all_2">Is Approved For All</h3>
<p>Queries the approval status of an operator for a given owner</p>
<pre><code class="language-c#">string network = &quot;mainnet&quot;; // mainnet testnet
string contract = &quot;0x3E31F70912c00AEa971A8b2045bd568D738C31Dc&quot;;
string account = &quot;0xe91e3b8b25f41b215645813a33e39edf42ba25cf&quot;;
string authorizedOperator = &quot;0x35706484aB20Cbf22F5c7a375D5764DA8166aE1c&quot;;

bool isApproved = await BEP1155.IsApprovedForAll(network, contract, account, authorizedOperator);

print (isApproved);
</code></pre>
<h2 id="bep721">BEP721</h2>
<p>Binance Smart Chain that extends ERC-721</p>
<h3 id="balance-of_9">Balance Of</h3>
<p>Counts all NFTs assigned to an owner</p>
<pre><code class="language-c#">string network = &quot;mainnet&quot;; // mainnet testnet
string contract = &quot;0x3e855B7941fE8ef5F07DAd68C5140D6a3EC1b286&quot;;
string account = &quot;0xf81035dd3945ee53f5862833844b69df339c7db4&quot;;

BigInteger balance = await BEP721.BalanceOf(network, contract, account);

print (balance);
</code></pre>
<h3 id="owner-of_2">Owner Of</h3>
<p>Find the owner of a NFT</p>
<pre><code class="language-c#">string network = &quot;mainnet&quot;; // mainnet testnet
string contract = &quot;0x3e855B7941fE8ef5F07DAd68C5140D6a3EC1b286&quot;;
string tokenId = &quot;1008&quot;;

string account = await BEP721.OwnerOf(network, contract, tokenId);

print (account);
</code></pre>
<h3 id="uri_5">URI</h3>
<pre><code class="language-c#">string network = &quot;mainnet&quot;; // mainnet testnet
string contract = &quot;0x3e855B7941fE8ef5F07DAd68C5140D6a3EC1b286&quot;;
string account = &quot;0xf81035dd3945ee53f5862833844b69df339c7db4&quot;;

BigInteger balance = await BEP721.BalanceOf(network, contract, account);

print (balance);
</code></pre>
<h2 id="bep20">BEP20</h2>
<p>Binance Smart Chain that extends ERC-20</p>
<h3 id="balance-of_10">Balance Of</h3>
<pre><code class="language-c#">string network = &quot;testnet&quot;; // mainnet testnet
string contract = &quot;0xb6b8bb1e16a6f73f7078108538979336b9b7341c&quot;;
string account = &quot;0x451bb3B5B93EE605daFA2D572AC170E9990eb8E4&quot;;

BigInteger balance = await BEP20.BalanceOf(network, contract, account);

print (balance);
</code></pre>
<h3 id="name_1">Name</h3>
<p>Returns the name of the token. E.g. "Wrapped Ether"</p>
<pre><code class="language-c#">string network = &quot;testnet&quot;; // mainnet testnet
string contract = &quot;0xb6b8bb1e16a6f73f7078108538979336b9b7341c&quot;;

string name = await BEP20.Name(network, contract);

print (name);
</code></pre>
<h3 id="symbol_1">Symbol</h3>
<p>Returns the symbol of the token. E.g. “WETH”.</p>
<pre><code class="language-c#">string network = &quot;testnet&quot;; // mainnet testnet
string contract = &quot;0xb6b8bb1e16a6f73f7078108538979336b9b7341c&quot;;

string symbol = await BEP20.Symbol(network, contract);

print (symbol);
</code></pre>
<h3 id="decimals_1">Decimals</h3>
<p>Returns the number of decimals the token uses - e.g. 8, means to divide the token amount by 100000000 to get its user representation.</p>
<pre><code class="language-c#">string network = &quot;testnet&quot;; // mainnet testnet
string contract = &quot;0xb6b8bb1e16a6f73f7078108538979336b9b7341c&quot;;

BigInteger decimals = await BEP20.Decimals(network, contract);

print (decimals);
</code></pre>
<h3 id="total-supply_1">Total Supply</h3>
<p>Returns the total token supply.</p>
<pre><code class="language-c#">string network = &quot;testnet&quot;; // mainnet testnet
string contract = &quot;0xb6b8bb1e16a6f73f7078108538979336b9b7341c&quot;;

BigInteger totalSupply = await BEP20.TotalSupply(network, contract);

print (totalSupply);
</code></pre>
<h2 id="xdai">xDai</h2>
<p>The first-ever USD stable blockchain and multi-chain staking token</p>
<h3 id="balance-of_11">Balance Of</h3>
<pre><code class="language-c#">string account = &quot;0x577b17c9A02B7A360e0cf945D623D6C1ace6074c&quot;;

BigInteger balance = await XDai.BalanceOf(account);

print(balance);
</code></pre>
<h3 id="verify_3">Verify</h3>
<pre><code class="language-c#">string message = &quot;YOUR_MESSAGE&quot;;
string signature = &quot;0x94bdbebbd0180195b89721a55c3a436a194358c9b3c4eafd22484085563ff55e49a4552904266a5b56662b280757f6aad3b2ab91509daceef4e5b3016afd34781b&quot;;

string account = await XDai.Verify(message, signature);

print (account);
</code></pre>
<h2 id="xdai1155">xDai1155</h2>
<h3 id="balance-of_12">Balance Of</h3>
<pre><code class="language-c#">string contract = &quot;0x93d0c9a35c43f6BC999416A06aaDF21E68B29EBA&quot;;
string account = &quot;0xa63641e81D223F01d11343C67b77CB4f092acd5a&quot;;
string tokenId = &quot;1344&quot;;

BigInteger balance = await XDai1155.BalanceOf(contract, account, tokenId);

print (balance);
</code></pre>
<h3 id="balance-of-batch_3">Balance Of Batch</h3>
<pre><code class="language-c#">string contract = &quot;0x93d0c9a35c43f6BC999416A06aaDF21E68B29EBA&quot;;
string[] accounts =
{
  &quot;0xa63641e81D223F01d11343C67b77CB4f092acd5a&quot;,
  &quot;0xa63641e81D223F01d11343C67b77CB4f092acd5a&quot;
};
string[] tokenIds = { &quot;1344&quot;, &quot;1345&quot; };

List&lt;BigInteger&gt; batchBalances = await XDai1155.BalanceOfBatch(contract, accounts, tokenIds);

foreach (var balance in batchBalances)
{
  print (&quot;batchBalance:&quot; + balance);
}
</code></pre>
<h3 id="uri_6">URI</h3>
<p>Returns meta data about the token.</p>
<pre><code class="language-c#">string contract = &quot;0x93d0c9a35c43f6BC999416A06aaDF21E68B29EBA&quot;;
string tokenId = &quot;1344&quot;;

string uri = await XDai1155.URI(contract, tokenId);

print (uri);
</code></pre>
<h3 id="is-approved-for-all_3">Is Approved For All</h3>
<p>Queries the approval status of an operator for a given owner</p>
<pre><code class="language-c#">string contract = &quot;0x93d0c9a35c43f6BC999416A06aaDF21E68B29EBA&quot;;
string account = &quot;0xa63641e81D223F01d11343C67b77CB4f092acd5a&quot;;
string authorizedOperator = &quot;0x35706484aB20Cbf22F5c7a375D5764DA8166aE1c&quot;;

bool isApproved = await XDai1155.IsApprovedForAll(contract, account, authorizedOperator);

print (isApproved);
</code></pre>
<h2 id="xdai721">xDai721</h2>
<h3 id="balance-of_13">Balance Of</h3>
<p>Counts all NFTs assigned to an owner</p>
<pre><code class="language-c#">string contract = &quot;0x90FdA259CFbdB74F1804e921F523e660bfBE698d&quot;;
string account = &quot;0x525C18aB76A28C367c876BBDFaa16Bb96865F9fE&quot;;

BigInteger balance = await XDai721.BalanceOf(contract, account);

print (balance);
</code></pre>
<h3 id="owner-of_3">Owner Of</h3>
<p>Find the owner of a NFT</p>
<pre><code class="language-c#">string contract = &quot;0x90FdA259CFbdB74F1804e921F523e660bfBE698d&quot;;
string tokenId = &quot;1582&quot;;

string account = await XDai721.OwnerOf(contract, tokenId);

print (account);
</code></pre>
<h3 id="uri_7">URI</h3>
<pre><code class="language-c#">string contract = &quot;0x90FdA259CFbdB74F1804e921F523e660bfBE698d&quot;;
string tokenId = &quot;1582&quot;;

string uri = await XDai721.TokenURI(contract, tokenId);

print (uri);
</code></pre>
<h2 id="xdai20">xDai20</h2>
<h3 id="balance-of_14">Balance Of</h3>
<pre><code class="language-c#">string contract = &quot;0xa106739de31fa7a9df4a93c9bea3e1bade0924e2&quot;;
string account = &quot;0x000000ea89990a17Ec07a35Ac2BBb02214C50152&quot;;

BigInteger balance = await XDai20.BalanceOf(contract, account);

print (balance);
</code></pre>
<h3 id="name_2">Name</h3>
<p>Returns the name of the token. E.g. "Wrapped Ether"</p>
<pre><code class="language-c#">string contract = &quot;0xa106739de31fa7a9df4a93c9bea3e1bade0924e2&quot;;

string name = await XDai20.Name(contract);

print (name);
</code></pre>
<h3 id="symbol_2">Symbol</h3>
<p>Returns the symbol of the token. E.g. “WETH”.</p>
<pre><code class="language-c#">string contract = &quot;0xa106739de31fa7a9df4a93c9bea3e1bade0924e2&quot;;

string symbol = await XDai20.Symbol(contract);

print (symbol);
</code></pre>
<h3 id="decimals_2">Decimals</h3>
<p>Returns the number of decimals the token uses - e.g. 8, means to divide the token amount by 100000000 to get its user representation.</p>
<pre><code class="language-c#">string contract = &quot;0xa106739de31fa7a9df4a93c9bea3e1bade0924e2&quot;;

BigInteger decimals = await XDai20.Decimals(contract);

print (decimals);
</code></pre>
<h3 id="total-supply_2">Total Supply</h3>
<p>Returns the total token supply.</p>
<pre><code class="language-c#">string contract = &quot;0xa106739de31fa7a9df4a93c9bea3e1bade0924e2&quot;;

BigInteger totalSupply = await XDai20.TotalSupply(contract);

print (totalSupply);
</code></pre>
              
            </div>
          </div>
          <footer>
  

  <hr/>

  <div role="contentinfo">
    <!-- Copyright etc -->
    
  </div>

  Built with <a href="https://www.mkdocs.org/">MkDocs</a> using a <a href="https://github.com/snide/sphinx_rtd_theme">theme</a> provided by <a href="https://readthedocs.org">Read the Docs</a>.
</footer>
      
        </div>
      </div>

    </section>

  </div>

  <div class="rst-versions" role="note" aria-label="versions">
    <span class="rst-current-version" data-toggle="rst-current-version">
      
      
      
    </span>
</div>
    <script>var base_url = '.';</script>
    <script src="js/theme.js" defer></script>
      <script src="search/main.js" defer></script>
    <script defer>
        window.onload = function () {
            SphinxRtdTheme.Navigation.enable(true);
        };
    </script>

</body>
</html>

<!--
MkDocs version : 1.1.2
Build Date UTC : 2021-05-14 16:28:02.333555+00:00
-->
