<!DOCTYPE html>
<!--[if IE 8]><html class="no-js lt-ie9" lang="en" > <![endif]-->
<!--[if gt IE 8]><!--> <html class="no-js" lang="en" > <!--<![endif]-->
<head>
  <meta charset="utf-8">
  <meta http-equiv="X-UA-Compatible" content="IE=edge">
  <meta name="viewport" content="width=device-width, initial-scale=1.0">
  <meta name="description" content="A plugin bridging Ethereum Tokens to Unity.">
  
  
  <link rel="shortcut icon" href="img/favicon.ico">
  <title>_dLabs SDK</title>
  <link rel="stylesheet" href="https://fonts.googleapis.com/css?family=Lato:400,700|Roboto+Slab:400,700|Inconsolata:400,700" />

  <link rel="stylesheet" href="css/theme.css" />
  <link rel="stylesheet" href="css/theme_extra.css" />
  <link rel="stylesheet" href="https://cdnjs.cloudflare.com/ajax/libs/highlight.js/9.12.0/styles/github.min.css" />
  
  <script>
    // Current page data
    var mkdocs_page_name = "_dLabs SDK";
    var mkdocs_page_input_path = "index.md";
    var mkdocs_page_url = null;
  </script>
  
  <script src="js/jquery-2.1.1.min.js" defer></script>
  <script src="js/modernizr-2.8.3.min.js" defer></script>
  <script src="https://cdnjs.cloudflare.com/ajax/libs/highlight.js/9.12.0/highlight.min.js"></script>
  <script>hljs.initHighlightingOnLoad();</script> 
  
</head>

<body class="wy-body-for-nav" role="document">

  <div class="wy-grid-for-nav">

    
    <nav data-toggle="wy-nav-shift" class="wy-nav-side stickynav">
    <div class="wy-side-scroll">
      <div class="wy-side-nav-search">
        <a href="." class="icon icon-home"> _dLabs SDK</a>
        <div role="search">
  <form id ="rtd-search-form" class="wy-form" action="./search.html" method="get">
    <input type="text" name="q" placeholder="Search docs" title="Type search term here" />
  </form>
</div>
      </div>

      <div class="wy-menu wy-menu-vertical" data-spy="affix" role="navigation" aria-label="main navigation">
                <ul class="current">
                    <li class="toctree-l1 current"><a class="reference internal current" href=".">_dLabs SDK</a>
    <ul class="current">
    <li class="toctree-l2"><a class="reference internal" href="#introduction">Introduction</a>
    </li>
    <li class="toctree-l2"><a class="reference internal" href="#ethereum">Ethereum</a>
        <ul>
    <li class="toctree-l3"><a class="reference internal" href="#balance-of">Balance Of</a>
    </li>
    <li class="toctree-l3"><a class="reference internal" href="#create-transaction">Create Transaction</a>
    </li>
    <li class="toctree-l3"><a class="reference internal" href="#broadcast-transaction">Broadcast Transaction</a>
    </li>
    <li class="toctree-l3"><a class="reference internal" href="#verify">Verify</a>
    </li>
        </ul>
    </li>
    <li class="toctree-l2"><a class="reference internal" href="#erc1155">ERC1155</a>
        <ul>
    <li class="toctree-l3"><a class="reference internal" href="#balance-of_1">Balance Of</a>
    </li>
    <li class="toctree-l3"><a class="reference internal" href="#balance-of-batch">Balance Of Batch</a>
    </li>
    <li class="toctree-l3"><a class="reference internal" href="#uri">URI</a>
    </li>
    <li class="toctree-l3"><a class="reference internal" href="#is-approved-for-all">Is Approved For All</a>
    </li>
        </ul>
    </li>
    <li class="toctree-l2"><a class="reference internal" href="#erc721">ERC721</a>
        <ul>
    <li class="toctree-l3"><a class="reference internal" href="#balance-of_2">Balance Of</a>
    </li>
    <li class="toctree-l3"><a class="reference internal" href="#owner-of">Owner Of</a>
    </li>
        </ul>
    </li>
    <li class="toctree-l2"><a class="reference internal" href="#erc20">ERC20</a>
        <ul>
    <li class="toctree-l3"><a class="reference internal" href="#balance-of_3">Balance Of</a>
    </li>
    <li class="toctree-l3"><a class="reference internal" href="#name">Name</a>
    </li>
    <li class="toctree-l3"><a class="reference internal" href="#symbol">Symbol</a>
    </li>
    <li class="toctree-l3"><a class="reference internal" href="#decimals">Decimals</a>
    </li>
    <li class="toctree-l3"><a class="reference internal" href="#total-supply">Total Supply</a>
    </li>
        </ul>
    </li>
    <li class="toctree-l2"><a class="reference internal" href="#wallet">Wallet</a>
        <ul>
    <li class="toctree-l3"><a class="reference internal" href="#ios-android-standalone">iOS, Android, Standalone</a>
    </li>
    <li class="toctree-l3"><a class="reference internal" href="#webgl">WebGL</a>
    </li>
    <li class="toctree-l3"><a class="reference internal" href="#_config">_Config</a>
    </li>
        </ul>
    </li>
    </ul>
                    </li>
                </ul>
      </div>
    </div>
    </nav>

    <section data-toggle="wy-nav-shift" class="wy-nav-content-wrap">

      
      <nav class="wy-nav-top" role="navigation" aria-label="top navigation">
        <i data-toggle="wy-nav-top" class="fa fa-bars"></i>
        <a href=".">_dLabs SDK</a>
      </nav>

      
      <div class="wy-nav-content">
        <div class="rst-content">
          <div role="navigation" aria-label="breadcrumbs navigation">
  <ul class="wy-breadcrumbs">
    <li><a href=".">Docs</a> &raquo;</li>
    
      
    
    <li>_dLabs SDK</li>
    <li class="wy-breadcrumbs-aside">
      
    </li>
  </ul>
  
  <hr/>
</div>
          <div role="main">
            <div class="section">
              
                <h1 id="_dlabs-documentation">_dLabs Documentation</h1>
<p>A plugin to bridge Unity to Ethereum Tokens.</p>
<h2 id="introduction">Introduction</h2>
<p><a href="https://www.youtube.com/watch?v=_XnB1BjUSvQ"><img alt="Watch the video" src="https://user-images.githubusercontent.com/19412160/103559601-66aa0480-4e84-11eb-803a-6f854e93640a.png" /></a></p>
<h2 id="ethereum">Ethereum</h2>
<h3 id="balance-of">Balance Of</h3>
<pre><code class="language-c#">string network = &quot;mainnet&quot;; // mainnet ropsten kovan rinkeby goerli
string account = &quot;0x99C85bb64564D9eF9A99621301f22C9993Cb89E3&quot;;

BigInteger wei = await Ethereum.BalanceOf(network, account);
print(&quot;wei: &quot; + wei);
</code></pre>
<h3 id="create-transaction">Create Transaction</h3>
<p>Create an unsigned transaction. User can sign offline.</p>
<pre><code class="language-c#">string network = &quot;rinkeby&quot;; // mainnet ropsten kovan rinkeby goerli
string from = &quot;0x35706484aB20Cbf22F5c7a375D5764DA8166aE1c&quot;;
string to = &quot;0x7E3bE66431ba73956213C40C0828355D1A7894D3&quot;;
string eth = &quot;0.00111&quot;;

Transaction transaction = await Ethereum.CreateTransaction(network, from, to, eth);

print(&quot;network: &quot; + transaction.network);
print(&quot;to: &quot; + transaction.to);
print(&quot;wei: &quot; + transaction.wei);
print(&quot;nonce: &quot; + transaction.nonce);
print(&quot;gasLimit: &quot; + transaction.gasLimit);
print(&quot;gasPrice: &quot; + transaction.gasPrice);
print(&quot;hex: &quot; + transaction.hex);
</code></pre>
<h3 id="broadcast-transaction">Broadcast Transaction</h3>
<p>Broadcast a signed transaction.</p>
<pre><code class="language-c#">string network = &quot;rinkeby&quot;; // mainnet ropsten kovan rinkeby goerli
string signedTransaction = &quot;0xf86b04843b9aca0083989680947e3be66431ba73956213c40c0828355d1a7894d38703f18a03b36000802ca0043ab6289f2a44dd911bfb3658cfac12710354a3e0cef35544c9348b15f9f6f7a018d36b8d5b61dc00a54293528d0edd8a4a7c9f064817825c7e8cb8167b240860&quot;;

string transactionHash = await Ethereum.Broadcast(network, signedTransaction);
print (transactionHash);
</code></pre>
<h3 id="verify">Verify</h3>
<p>Verify a signed message.</p>
<pre><code class="language-c#">string network = &quot;mainnet&quot;; // mainnet ropsten kovan rinkeby goerli
string message = &quot;YOUR_MESSAGE&quot;;
string signature = &quot;0x94bdbebbd0180195b89721a55c3a436a194358c9b3c4eafd22484085563ff55e49a4552904266a5b56662b280757f6aad3b2ab91509daceef4e5b3016afd34781b&quot;;

string account = await Ethereum.Verify(network, message, signature);
print (account); // 0xC52C1FB0B9681e1c80e5AdA8eEeD992C0C2706eE
</code></pre>
<h2 id="erc1155">ERC1155</h2>
<p>ERC-1155 contracts have two additonal fields.</p>
<ul>
<li>
<p>Contract address: The address that stores the balances of the token.</p>
</li>
<li>
<p>Token Id: The specific token inside of the contract address.</p>
</li>
</ul>
<p>For example. The contract address <code>0x5e30b1d6f920364c847512e2528efdadf72a97a9</code> can store all digital chess pieces. A pawn can be token id <code>17</code>.</p>
<h3 id="balance-of_1">Balance Of</h3>
<pre><code class="language-c#">string network = &quot;rinkeby&quot;; // mainnet ropsten kovan rinkeby goerli
string contract = &quot;0x2ebecabbbe8a8c629b99ab23ed154d74cd5d4342&quot;;
string account = &quot;0xaca9b6d9b1636d99156bb12825c75de1e5a58870&quot;;
string tokenId = &quot;22&quot;;

BigInteger balance = await ERC1155.BalanceOf(network, contract, account, tokenId);

print (balance)
</code></pre>
<h3 id="balance-of-batch">Balance Of Batch</h3>
<p>Balance of batch will get the balance of a list of accounts and token ids. For example:</p>
<p>Get the balance of account <code>0xaCA9B6D9B1636D99156bB12825c75De1E5a58870</code> with token id <code>17</code> and</p>
<p>balance of account <code>0xaCA9B6D9B1636D99156bB12825c75De1E5a58870</code> with token id <code>22</code></p>
<pre><code class="language-c#">string network = &quot;rinkeby&quot;; // mainnet ropsten kovan rinkeby goerli
string contract = &quot;0x2ebecabbbe8a8c629b99ab23ed154d74cd5d4342&quot;;
string[] accounts ={ &quot;0xaCA9B6D9B1636D99156bB12825c75De1E5a58870&quot;, &quot;0xaCA9B6D9B1636D99156bB12825c75De1E5a58870&quot; };
string[] tokenIds = { &quot;17&quot;, &quot;22&quot; };

List&lt;BigInteger&gt; batchBalances = await ERC1155.BalanceOfBatch(network, contract, accounts, tokenIds);

foreach (var balance in batchBalances)
{
  print (&quot;batchBalance:&quot; + balance);
}
</code></pre>
<h3 id="uri">URI</h3>
<p>Returns meta data about the token.</p>
<pre><code class="language-c#">string network = &quot;rinkeby&quot;; // mainnet ropsten kovan rinkeby goerli
string contract = &quot;0x2ebecabbbe8a8c629b99ab23ed154d74cd5d4342&quot;;
string tokenId = &quot;17&quot;;

string uri = await ERC1155.URI(network, contract, tokenId);

print (uri);
</code></pre>
<h3 id="is-approved-for-all">Is Approved For All</h3>
<p>Queries the approval status of an operator for a given owner</p>
<pre><code class="language-c#">string network = &quot;rinkeby&quot;; // mainnet ropsten kovan rinkeby goerli
string contract = &quot;0x2ebecabbbe8a8c629b99ab23ed154d74cd5d4342&quot;;
string account = &quot;0xaca9b6d9b1636d99156bb12825c75de1e5a58870&quot;;
string authorizedOperator = &quot;0x3482549fca7511267c9ef7089507c0f16ea1dcc1&quot;;

// Queries the approval status of an operator for a given owner
bool isApproved = await ERC1155.IsApprovedForAll(network, contract, account, authorizedOperator);

print (isApproved);
</code></pre>
<h2 id="erc721">ERC721</h2>
<h3 id="balance-of_2">Balance Of</h3>
<p>Counts all NFTs assigned to an owner</p>
<pre><code class="language-c#">string network = &quot;mainnet&quot;; // mainnet ropsten kovan rinkeby goerli
string contract = &quot;0x60f80121c31a0d46b5279700f9df786054aa5ee5&quot;;
string account = &quot;0x6b2be2106a7e883f282e2ea8e203f516ec5b77f7&quot;;

BigInteger balance = await ERC721.BalanceOf(network, contract, account);

print (balance);
</code></pre>
<h3 id="owner-of">Owner Of</h3>
<p>Find the owner of a NFT</p>
<pre><code class="language-c#">string network = &quot;mainnet&quot;; // mainnet ropsten kovan rinkeby goerli
string contract = &quot;0xf5b0a3efb8e8e4c201e2a935f110eaaf3ffecb8d&quot;;
string tokenId = &quot;721&quot;;

string account = await ERC721.OwnerOf(network, contract, tokenId);

print (account);
</code></pre>
<h2 id="erc20">ERC20</h2>
<h3 id="balance-of_3">Balance Of</h3>
<pre><code class="language-c#">string network = &quot;rinkeby&quot;; // mainnet ropsten kovan rinkeby goerli
string contract = &quot;0xc778417e063141139fce010982780140aa0cd5ab&quot;;
string account = &quot;0xaCA9B6D9B1636D99156bB12825c75De1E5a58870&quot;;

BigInteger balance = await ERC20.BalanceOf(network, contract, account);

print (balance);
</code></pre>
<h3 id="name">Name</h3>
<p>Returns the name of the token. E.g. "Wrapped Ether"</p>
<pre><code class="language-c#">string network = &quot;rinkeby&quot;; // mainnet ropsten kovan rinkeby goerli
string contract = &quot;0xc778417E063141139Fce010982780140Aa0cD5Ab&quot;;

string name = await ERC20.Name(network, contract);

print (name);
</code></pre>
<h3 id="symbol">Symbol</h3>
<p>Returns the symbol of the token. E.g. “WETH”.</p>
<pre><code class="language-c#">string network = &quot;rinkeby&quot;; // mainnet ropsten kovan rinkeby goerli
string contract = &quot;0xc778417E063141139Fce010982780140Aa0cD5Ab&quot;;

string symbol = await ERC20.Symbol(network, contract);

print (symbol);
</code></pre>
<h3 id="decimals">Decimals</h3>
<p>Returns the number of decimals the token uses - e.g. 8, means to divide the token amount by 100000000 to get its user representation.</p>
<pre><code class="language-c#">string network = &quot;rinkeby&quot;; // mainnet ropsten kovan rinkeby goerli
string contract = &quot;0xc778417E063141139Fce010982780140Aa0cD5Ab&quot;;

BigInteger decimals = await ERC20.Decimals(network, contract);

print (decimals);
</code></pre>
<h3 id="total-supply">Total Supply</h3>
<p>Returns the total token supply.</p>
<pre><code class="language-c#">string network = &quot;rinkeby&quot;; // mainnet ropsten kovan rinkeby goerli
string contract = &quot;0xc778417e063141139fce010982780140aa0cd5ab&quot;;

BigInteger totalSupply = await ERC20.TotalSupply(network, contract);

print (totalSupply);
</code></pre>
<h2 id="wallet">Wallet</h2>
<p>There are two Login Scenes. One for webgl and the other for stand alone (iOS, Android, Standalone)</p>
<h3 id="ios-android-standalone">iOS, Android, Standalone</h3>
<p><a href="https://www.youtube.com/watch?v=PSydAY9ps-I"><img alt="" src="https://user-images.githubusercontent.com/19412160/109343259-0d829f80-783b-11eb-9324-9962cd2b0c8c.png" /></a></p>
<h3 id="webgl">WebGL</h3>
<p><a href="https://www.youtube.com/watch?v=4KpftfYcaEY"><img alt="" src="https://user-images.githubusercontent.com/19412160/112086705-17aa6c00-8b63-11eb-80b5-ef75801d4e21.png" /></a></p>
<h3 id="_config">_Config</h3>
<p>After Login Scene <code>_Config.cs</code> will store user info. This can be accessed in any scene.</p>
<pre><code class="language-c#">string account = _Config.Account;
print(account);
</code></pre>
              
            </div>
          </div>
          <footer>
  

  <hr/>

  <div role="contentinfo">
    <!-- Copyright etc -->
    
  </div>

  Built with <a href="https://www.mkdocs.org/">MkDocs</a> using a <a href="https://github.com/snide/sphinx_rtd_theme">theme</a> provided by <a href="https://readthedocs.org">Read the Docs</a>.
</footer>
      
        </div>
      </div>

    </section>

  </div>

  <div class="rst-versions" role="note" aria-label="versions">
    <span class="rst-current-version" data-toggle="rst-current-version">
      
      
      
    </span>
</div>
    <script>var base_url = '.';</script>
    <script src="js/theme.js" defer></script>
      <script src="search/main.js" defer></script>
    <script defer>
        window.onload = function () {
            SphinxRtdTheme.Navigation.enable(true);
        };
    </script>

</body>
</html>

<!--
MkDocs version : 1.1.2
Build Date UTC : 2021-03-23 03:08:43.319264+00:00
-->
